:03000000020C20CF
:0C0C2000787FE4F6D8FD75811B0209986E
:100A4400706C6561736520656E74657220612073D6
:100A54007472696E67200A006E6578742063686139
:100A640072206973202000200A7468697320636807
:100A74006172206973206E6F74206E756D65726982
:100A840063616C20736F2069676E6F7265640A001E
:100A940020616E642077696C6C2062652073656EDA
:100AA40074206E6F77200A00646F6E652073656E24
:100AB40064696E67204E756D626572200900646F0B
:100AC4006E652073656E64696E67206E756D626510
:100AD400727320696E2074686520737472696E671E
:030AE400200A00E5
:10099800E4F513D290120C027BFF7A0A7944120B09
:1009A8009F7B007A007908120B3674082513F8E645
:1009B8006074F512FF7E00C3943074809480400AFE
:1009C800D3EF943974809480401B7BFF7A0A795C5A
:1009D800120B9FAF12120C347BFF7A0A796B120B41
:1009E8009F051380C57BFF7A0A795C120B9FAF12B3
:1009F800120C347BFF7A0A7994120B9FE51224D0EB
:100A0800FFE434FFFE1208007F2C7E01120BC37B2B
:100A1800FF7A0A79AC120B9FAF12120C347F0A12BC
:100A28000C34051380847BFF7A0A79C2120B9F7FEE
:0C0A3800647E00120BC3E4F5130209A059
:0F0C0200759850758780758920758DFDD28E226B
:070C2C003098FDAF99C2985A
:010C3300229E
:080C34008F993099FDC299224D
:060B9F008B148A15891673
:100BA500E4FDFCAB14AA15A9168D828C83120AE705
:0D0BB500FF600A120C340DBD00010C80E63B
:010BC2002210
:060B72008B178A18891997
:100B7800E4F51AF51B120C2CEF640DAB17AA18A993
:100B8800196009851B82851A83EF8007851B82857A
:060B98001A83E4120B14A5
:010B9E002234
:060B36008B148A158916DC
:100B3C00E4FEFF120C2CAB14AA15A9168E82758339
:100B4C0000EF120B148E82758300120AE7FF0E64FD
:100B5C000A6003BF0DDD0EAB14AA15A9168E8275A3
:060B6C008300E4020B14FB
:0F0C1100438901758A65758CFCD28C308DFD226C
:100BC300E4FDFCC3ED9FEE6480F8EC648098500A6A
:0A0BD300120C110DBD00010C80E9A9
:010BDD0022F5
:10080000EE6003020997EFB40A00400302099790D3
:100810000816F82828730208340208360208450230
:10082000085E0208810208AF0208DD02090B020916
:1008300038020965800A120BDE7F647E00120BC34A
:10084000120BF0800D120BDE7F647E00120BC312C0
:100850000BDE7F647E00120BC3120BF08017120BAD
:10086000DE7F647E00120BC3120BDE7F647E0012FB
:100870000BC3120BDE7F647E00120BC3120BF080E1
:1008800021120BDE7F647E00120BC3120BDE7F642D
:100890007E00120BC3120BDE7F647E00120BC312AC
:1008A0000BDE7F647E00120BC3120BF00209901264
:1008B0000BDE7F647E00120BC3120BDE7F647E00B2
:1008C000120BC3120BDE7F647E00120BC3120BDE11
:1008D0007F647E00120BC3120BDE020990120BF034
:1008E0007F647E00120BC3120BDE7F647E00120B4E
:1008F000C3120BDE7F647E00120BC3120BDE7F641B
:100900007E00120BC3120BDE020990120BF07F6403
:100910007E00120BC3120BF07F647E00120BC31219
:100920000BDE7F647E00120BC3120BDE7F647E0041
:10093000120BC3120BDE8058120BF07F647E001284
:100940000BC3120BF07F647E00120BC3120BF07FFF
:10095000647E00120BC3120BDE7F647E00120BC399
:10096000120BDE802B120BF07F647E00120BC31281
:100970000BF07F647E00120BC3120BF07F647E00CD
:10098000120BC3120BF07F647E00120BC3120BDE3E
:080990007F647E00120BC322FC
:100BDE00C2907F647E00120BC3D2907F647E0002AF
:020BEE000BC337
:100BF000C2907F2C7E01120BC3D2907F2C7E01020B
:020C00000BC324
:100AE700BB010CE58229F582E5833AF583E02250C4
:100AF70006E92582F8E622BBFE06E92582F8E2220E
:0D0B0700E58229F582E5833AF583E4932227
:100B1400F8BB010DE58229F582E5833AF583E8F017
:100B2400225006E92582C8F622BBFE05E92582C8C3
:020B3400F222AB
:00000001FF
