:03000000020A5D94
:0C0A5D00787FE4F6D8FD75811C0209BD0D
:100A070065766572797468696E6720697320776F98
:0D0A1700726B696E672066696E65200A00CB
:1009BD00E4F508120A3F7BFF7A0A79071209947F42
:1009CD00647E00120A241209E28F081209237F0A9D
:0509DD00120A8780EA08
:0A0A75000000000000000000000077
:1009E200E4F509D2B2D2B7D2B6C2B67F32FE120A4B
:1009F20024D2B620B2FD7F327E00120A24C2B7850D
:040A0200A009AF098F
:010A060022CD
:020923008F093A
:10092500E4F50AF50BF50CF50D780E7C00FD7BFF63
:100935007A0A7975FE7F0A1208D0AF09EFD39400C1
:1009450074809480401DEF75F00A84AEF0050BE5C8
:100955000B7002050A14240EF8A606EF75F00A843A
:10096500FF80D9E50B24FFF50DE50A34FFF50CC32F
:10097500E50C648094804016740E250DF8E624304D
:0E098500FF120A87E50D150D70E5150C80E1D7
:010993002241
:0F0A3F00759850758780758920758DFDD28E2230
:070A7F003098FDAF99C29809
:010A8600224D
:080A87008F993099FDC29922FC
:060994008B098A0A890BA1
:10099A00E4FDFCAB09AA0AA90B8D828C831208F626
:1009AA00FFFB3395E04B600A120A870DBD00010C6C
:0209BA0080E1DA
:0109BC002218
:060A69008B188A19891A9E
:050A6F00E4F51BF51C7D
:010A7400225F
:0F0A4E00438901758A65758CFCD28C308DFD2231
:100A2400E4FDFCC3ED9FEE6480F8EC648098500A0A
:0A0A3400120A4E0DBD00010C80E90E
:010A3E002295
:10080000E709F608DFFA8046E709F208DFFA803EDA
:1008100088828C83E709F0A3DFFA8032E309F608C7
:10082000DFFA8078E309F208DFFA807088828C832F
:10083000E309F0A3DFFA806489828A83E0A3F608E3
:10084000DFFA805889828A83E0A3F208DFFA804CBD
:1008500080D280FA80C680D4806980F28033801094
:1008600080A680EA809A80A880DA80E280CA8033FD
:1008700089828A83ECFAE493A3C8C582C8CCC58375
:10088000CCF0A3C8C582C8CCC583CCDFE9DEE78045
:100890000D89828A83E493A3F608DFF9ECFAA9F0C4
:1008A000EDFB2289828A83ECFAE0A3C8C582C8CC1A
:1008B000C583CCF0A3C8C582C8CCC583CCDFEADE33
:1008C000E880DB89828A83E493A3F208DFF980CC95
:1008D00088F0EF60010E4E60C388F0ED2402B4048E
:1008E0000050B9F582EB2402B4040050AF23234535
:0608F00082239008507302
:1008F600BB010CE58229F582E5833AF583E02250B7
:1009060006E92582F8E622BBFE06E92582F8E22200
:0D091600E58229F582E5833AF583E493221A
:00000001FF
