:03000000020C915E
:0C0C9100787FE4F6D8FD75812A020CD8AB
:100BC700706C6561736520656E7465722061207352
:100BD7007472696E67200A006E65787420636861B5
:100BE70072206973202000200A7468697320636883
:100BF7006172206973206E6F74206E756D657269FE
:100C070063616C20736F2069676E6F7265640A0099
:100C170020616E642077696C6C2062652073656E55
:100C270074206E6F77200A00646F6E652073656E9F
:100C370064696E67204E756D6265722009005365A1
:100C47007175656E63652069732063616E63656C9A
:100C57006C6564200A4E65772073657175656E63F0
:100C6700652E2E0A00646F6E652073656E64696E6B
:100C770067206E756D6265727320696E2074686592
:0A0C870020737472696E67200A0082
:080E6B0002080000021500005E
:03002300020D1DAE
:0D0D1D00C0E0C0D075D000C000C006C00707
:100D2A00AF9975A800AE16740A2EF8A6070516E53F
:100D3A001670020515AF16740A2FF8E6F514E514B5
:100D4A00640A601CE514640D6016AF16740A2FF865
:100D5A00760075080075090175150075160080067C
:090D6A0075080075090075A890D8
:0B0D7300D007D006D000D0D0D0E03276
:100ADD00E4F522D290120E267BFF7A0B79C7120D08
:100AED00E77B007A007917120D7E74172522F8E640
:100AFD00FF7003020BB1E4F508F5098F21FEC3EF7A
:100B0D00943074809480400AD3EF9439748094802B
:100B1D00401B7BFF7A0B79DF120DE7AF21120E7CA4
:100B2D007BFF7A0B79EE120DE7052280BD7BFF7AF4
:100B3D000B79DF120DE7AF21120E7C7BFF7A0C795A
:100B4D0017120DE7E52124D0FFE434FFFE12080053
:100B5D007F2C7E01120E0B7BFF7A0C792F120DE785
:100B6D00AF21120E7C7F0A120E7C0522E50964016D
:100B7D0045086003020AF7F5227BFF7A0C794512CE
:100B8D000DE778177C007D007B007A00790A7E00E6
:100B9D007F0A120A687F647E00120E0BE4F508F5D9
:100BAD0009020AF77BFF7A0C796C120DE77F647EE0
:0A0BBD0000120E0BE4F522020AE517
:100E2600759850758780758920758DFDD28E75A849
:020E3600902208
:070E74003098FDAF99C29810
:010E7B002254
:080E7C008F993099FDC2992203
:060DE7008B238A248925FC
:100DED00E4FDFCAB23AA24A9258D828C83120A8EE7
:0D0DFD00FF600A120E7C0DBD00010C80E6A7
:010E0A0022C5
:060DBA008B268A27892820
:100DC000E4F529F52A120E74EF640DAB26AA27A9C3
:100DD000286009852A82852983EF8007852A8285F4
:060DE0002983E4120ABBA6
:010DE60022EA
:060D7E008B238A24892565
:100D8400E4FEFF120E74AB23AA24A9258E82758378
:100D940000EF120ABB8E82758300120A8EFF0E6466
:100DA4000A6003BF0DDD0EAB23AA24A9258E82752C
:060DB4008300E4020ABB0B
:0F0E5C00438901758A65758CFCD28C308DFD221F
:100E0B00E4FDFCC3ED9FEE6480F8EC648098500A1F
:0A0E1B00120E5C0DBD00010C80E911
:010E250022AA
:10080000EE6003020997EFB40A00400302099790D3
:100810000816F82828730208340208360208450230
:10082000085E0208810208AF0208DD02090B020916
:1008300038020965800A120E387F647E00120E0BA2
:10084000120E4A800D120E387F647E00120E0B12BB
:100850000E387F647E00120E0B120E4A8017120EA5
:10086000387F647E00120E0B120E387F647E0012F9
:100870000E0B120E387F647E00120E0B120E4A8091
:1008800021120E387F647E00120E0B120E387F6428
:100890007E00120E0B120E387F647E00120E0B12B9
:1008A0000E387F647E00120E0B120E4A020990125F
:1008B0000E387F647E00120E0B120E387F647E00AD
:1008C000120E0B120E387F647E00120E0B120E38C1
:1008D0007F647E00120E0B120E38020990120E4A2F
:1008E0007F647E00120E0B120E387F647E00120EA3
:1008F0000B120E387F647E00120E0B120E387F64CE
:100900007E00120E0B120E38020990120E4A7F64FE
:100910007E00120E0B120E4A7F647E00120E0B1226
:100920000E387F647E00120E0B120E387F647E003C
:10093000120E0B120E388058120E4A7F647E00127F
:100940000E0B120E4A7F647E00120E0B120E4A7FAF
:10095000647E00120E0B120E387F647E00120E0BA6
:10096000120E38802B120E4A7F647E00120E0B127C
:100970000E4A7F647E00120E0B120E4A7F647E00C8
:10098000120E0B120E4A7F647E00120E0B120E38EE
:080990007F647E00120E0B22B1
:100E3800C2907F647E00120E0BD2907F647E000207
:020E48000E0B8F
:100E4A00C2907F2C7E01120E0BD2907F2C7E010263
:020E5A000E0B7D
:100C9D00020ADDE493A3F8E493A34003F68001F286
:100CAD0008DFF48029E493A3F85407240CC8C33358
:100CBD00C4540F4420C8834004F456800146F6DF27
:100CCD00E4800B0102040810204080900E6BE47E3E
:100CDD00019360BCA3FF543F30E509541FFEE4931C
:100CED00A360010ECF54C025E060A840B8E493A3E3
:100CFD00FAE493A3F8E493A3C8C582C8CAC583CA0E
:100D0D00F0A3C8C582C8CAC583CADFE9DEE780BEC5
:010E7300007E
:10099800E709F608DFFA8046E709F208DFFA803E41
:1009A80088828C83E709F0A3DFFA8032E309F6082E
:1009B800DFFA8078E309F208DFFA807088828C8396
:1009C800E309F0A3DFFA806489828A83E0A3F6084A
:1009D800DFFA805889828A83E0A3F208DFFA804C24
:1009E80080D280FA80C680D4806980F280338010FB
:1009F80080A680EA809A80A880DA80E280CA803364
:100A080089828A83ECFAE493A3C8C582C8CCC583DB
:100A1800CCF0A3C8C582C8CCC583CCDFE9DEE780AB
:100A28000D89828A83E493A3F608DFF9ECFAA9F02A
:100A3800EDFB2289828A83ECFAE0A3C8C582C8CC80
:100A4800C583CCF0A3C8C582C8CCC583CCDFEADE99
:100A5800E880DB89828A83E493A3F208DFF980CCFB
:100A680088F0EF60010E4E60C388F0ED2402B404F4
:100A78000050B9F582EB2402B4040050AF2323459B
:060A880082239009E873CF
:100A8E00BB010CE58229F582E5833AF583E022501D
:100A9E0006E92582F8E622BBFE06E92582F8E22267
:0D0AAE00E58229F582E5833AF583E4932281
:100ABB00F8BB010DE58229F582E5833AF583E8F071
:100ACB00225006E92582C8F622BBFE05E92582C81D
:020ADB00F22205
:00000001FF
