:03000000020B03ED
:0C0B0300787FE4F6D8FD7581740209E7E4
:100A2100706C6561736520656E7465722061206EFE
:100A3100756D626572200A00646F6E65207072695F
:0F0A41006E74696E67204E756D626572200900D4
:1009E700D290120AE57BFF7A0A7921120A7D120B4F
:1009F7000F8F6CEF24D0FFE434FFFE1208007F2C2A
:100A07007E01120AA67BFF7A0A7939120A7DAF6C3A
:0A0A1700120B177F0A120B1780CB99
:0F0AE500759850758780758920758DFDD28E228A
:070B0F003098FDAF99C29878
:010B160022BC
:080B17008F993099FDC299226B
:060A7D008B6D8A6E896F8B
:100A8300E4FDFCAB6DAA6EA96F8D828C831209986D
:100A9300FFFB3395E04B600A120B170DBD00010CF1
:020AA30080E1F0
:010AA500222E
:060A50008B708A718972AF
:100A5600E4F573F574120B0FEF640DAB70AA71A970
:100A6600726009857482857383EF80078574828539
:060A76007383E41209C5C0
:010A7C002257
:0F0AF400438901758A65758CFCD28C308DFD228B
:100AA600E4FDFCC3ED9FEE6480F8EC648098500A88
:0A0AB600120AF40DBD00010C80E9E6
:010AC0002213
:10080000EE6003020997EFB40A00400302099790D3
:100810000816F82828730208340208360208450230
:10082000085E0208810208AF0208DD02090B020916
:1008300038020965800A120AC17F647E00120AA686
:10084000120AD3800D120AC17F647E00120AA6121A
:100850000AC17F647E00120AA6120AD38017120A08
:10086000C17F647E00120AA6120AC17F647E001254
:100870000AA6120AC17F647E00120AA6120AD38059
:1008800021120AC17F647E00120AA6120AC17F6487
:100890007E00120AA6120AC17F647E00120AA61206
:1008A0000AC17F647E00120AA6120AD302099012BE
:1008B0000AC17F647E00120AA6120AC17F647E000C
:1008C000120AA6120AC17F647E00120AA6120AC189
:1008D0007F647E00120AA6120AC1020990120AD38E
:1008E0007F647E00120AA6120AC17F647E00120A8B
:1008F000A6120AC17F647E00120AA6120AC17F6492
:100900007E00120AA6120AC1020990120AD37F645D
:100910007E00120AA6120AD37F647E00120AA61273
:100920000AC17F647E00120AA6120AC17F647E009B
:10093000120AA6120AC18058120AD37F647E0012DE
:100940000AA6120AD37F647E00120AA6120AD37F77
:10095000647E00120AA6120AC17F647E00120AA6F3
:10096000120AC1802B120AD37F647E00120AA612DB
:100970000AD37F647E00120AA6120AD37F647E0027
:10098000120AA6120AD37F647E00120AA6120AC1B6
:080990007F647E00120AA6221A
:100AC100C2907F647E00120AA6D2907F647E0002EB
:020AD1000AA673
:100AD300C2907F2C7E01120AA6D2907F2C7E010247
:020AE3000AA661
:10099800BB010CE58229F582E5833AF583E0225014
:1009A80006E92582F8E622BBFE06E92582F8E2225E
:0D09B800E58229F582E5833AF583E4932278
:1009C500F8BB010DE58229F582E5833AF583E8F068
:1009D500225006E92582C8F622BBFE05E92582C814
:0209E500F222FC
:00000001FF
